:020000040000FA
:1000000008146830990000308D0000308E00081010
:1000100000308D0000308E000E200C288030A000B3
:100020004030A1002030A2001030A3000830A4000E
:100030000430A5000230A6000230A70020200800EE
:1000400020088E007F308D00492021088E00BF30AF
:100050008D00492022088E00DF308D0049202308C2
:100060008E00EF308D00492024088E00F7308D007F
:10007000492025088E00FB308D00492026088E007F
:10008000FD308D00492027088E007E308D004920EC
:1000900008000030A8000130A900A80B4D28A90BCA
:0400A0004B280800E1
:0400A40000340034F0
:020000040001F9
:02000E00840963
:02001000FF3CB3
:00000001FF
