:020000040000FA
:100000000814683099008E018C0108108E018C0153
:100010008030850021308400870170308600F00137
:10002000F101F201F301F401F501F601F701FC0120
:10003000FD011A28A9200C30FB00CC20FB0B1D2849
:100040001A28003400340034003400340034003402
:10005000003400347E3401344134013442340434F9
:1000600000340234053405343E3412340134003493
:1000700000340834503451345134523452340C3436
:1000800000347F340234553455347F345234513483
:1000900000340834503451345134523452340C3416
:1000A00000341034103421342134213422341C34EF
:1000B00000340834503451345134523452340C34F6
:1000C000003400347E340134013401340234043409
:1000D00000340134063418346834063401340634EC
:1000E00000340234253421342134213421340134C4
:1000F00000340834503451345134523452340C34B6
:10010000003423342C34713421345E3400345834B8
:10011000003408341434143422342234413400348A
:1001200000342134213421342134213421343F342A
:1001300000341034083408340834083408340834DF
:100140000034013421342234223424343A3401344A
:1001500000347108F0007208F1007308F2007408AE
:10016000F3007508F4007608F5007708F600003F04
:10017000F7000131FD0A0319FC0A00307C02031D5F
:10018000080088307D02031D0800FC01FD0180305D
:10019000850021308400080016008E00FE308C009F
:1001A000F72016008E00BF308C00F72016008E005E
:1001B000FD308C00F72016008E00F7308C00F72001
:1001C00016008E00DF308C00F72016008E00FB300A
:1001D0008C00F72016008E007F308C00F720160070
:1001E0008E00EF308C00F720703086000800F93068
:0C01F000F80000000000F80BF9280800DF
:0401FC000034003497
:020000040001F9
:02000E00840963
:02001000FF3CB3
:00000001FF
