:020000040000FA
:100000000814683099008E018C0108108E018C0153
:100010008030850021308400870170308600F00137
:10002000F101F201F301F401F501F601F701FC0120
:10003000FD011A2891200C30FB00B420FB0B1D2879
:100040001A28003400340034003400340034003402
:10005000003424342A342934293475342C3420349F
:10006000003401340634183468340634013406345C
:10007000003408342A342D34693439346D3408346A
:100080000034023425342134213421342134013424
:1000900000340834503451345134523452340C3416
:1000A000003410347E341134113415347D3410345E
:1000B000003401340634183468340634013406340C
:1000C0000034043418342034103408340434023436
:1000D00000340234053405347E34243422340134AF
:1000E00000340834503451345134523452340C34C6
:1000F00000340234253421342134213421340134B4
:100100000034083448345A346D344934493408349E
:10011000003400340034003400340034003400343F
:1001200000347108F0007208F1007308F2007408DE
:10013000F3007508F4007608F5007708F600003F34
:10014000F7000131FD0A0319FC0A00307C02031D8F
:10015000080070307D02031D0800FC01FD018030A5
:10016000850021308400080016008E00FE308C00CF
:10017000DF2016008E00BF308C00DF2016008E00BE
:10018000FD308C00DF2016008E00EF308C00DF2069
:1001900016008E00DF308C00DF2016008E00FB3052
:1001A0008C00DF2016008E007F308C00DF201600D0
:1001B0008E00F7308C00DF20703086000800F930A8
:0C01C000F80000000000F80BE128080027
:0401CC0000340034C7
:020000040001F9
:02000E00840963
:02001000FF3CB3
:00000001FF
