:020000040000FA
:100000000814683099008E018C0108108E018C0153
:100010002330840080308500870170308600F00135
:10002000F101F201F301F401F501F601F701FD011F
:10003000FC01FE011B28332159210C30FB009F21BC
:10004000FB0B1F281B28003400340034003400341C
:1000500000340034003424342A34293429347534EB
:100060002C34203400340134063418346834063417
:1000700001340634003408342A342D3469343934D8
:100080006D340834003402342534213421342134D1
:100090002134013400340834503451345134523452
:1000A00052340C34003410347E341134113415348D
:1000B0007D34103400340134063418346834063486
:1000C0000134063400340434183420341034083435
:1000D0000434023400340234053405347E342434CC
:1000E0002234013400340834503451345134523401
:1000F00052340C3400340234253421342134213478
:10010000213401340034083448345A346D344934CD
:1001100049340834003400340034003400340034EE
:10012000003400340034003400340034003400342F
:1001300000340034003423342C3470342234153429
:1001400011341134003423342C34713421341E34EE
:1001500020341834003424342A34293429347534B2
:100160002C342034003408342A342D3469343934A2
:100170002D34083400347E340034203421347E346D
:100180002034203400340134063418346834063402
:100190000134063400340434183420341034083464
:1001A0000434023400340234053405347E342434FB
:1001B0002234013400340834503451345134523430
:1001C00052340C34003402342534213421342134A7
:1001D000213401340034083448345A346D344934FD
:1001E000493408340034003400340034003400341E
:1001F000003400340034003400340034003400345F
:10020000003400340034063449345E346834093430
:100210001E3408340034013406341834683406348B
:10022000013406340034263428347234253405343D
:100230003F342234003408342A342D3469343934BC
:100240002D3408340034203420342E343134213419
:1002500021342034003400340034003400340034BD
:1002600000340034003490190800F001F101F2016B
:10027000F301F401F501F601F7019F21901D3E29DC
:10028000FC01FD017E08820747294D295329FE0AFA
:1002900093308400803085000800FE0AFB30840023
:1002A000803085000800FE01233084008030850006
:1002B00008007108F0007208F1007308F200740879
:1002C000F3007508F4007608F5007708F600003FA3
:1002D000F7000131FC0A0319FD0A7E088207722922
:1002E0008129902970307C02031D080000307D02B6
:1002F000031D0800FC01FD012330840080308500CF
:10030000080068307C02031D080000307D02031DD8
:100310000800FC01FD019330840080308500080056
:1003200038307C02031D080000307D02031D0800E8
:10033000FC01FD01FB3084008030850008001600C0
:100340008E00FE308C00CA2116008E00BF308C005B
:10035000CA2116008E00FD308C00CA2116008E00C6
:10036000F7308C00CA2116008E00DF308C00CA21C5
:1003700016008E00FB308C00CA2116008E007F30E4
:100380008C00CA2116008E00EF308C00CA2170301C
:1003900086000800F930F80000000000F80BCC29B6
:0203A000080053
:0403A20000340034EF
:020000040001F9
:02000E00840963
:02001000FF1CD3
:00000001FF
