:020000040000FA
:100000000814683099008E018C0108108E018C0153
:100010008030850021308400870170308600F00137
:10002000F101F201F301F401F501F601F701FC0120
:10003000FD011A2889200C30FB00AC20FB0B1D2889
:100040001A28003400340034003400340034003402
:100050000034003410342034403420341034003460
:100060000034003400340C340C34003400340034D8
:100070000034003410342034403420341034003440
:1000800000340034003421347F340134003400342F
:100090000034003423344534453449344934313450
:1000A000003400342234413449344934493436343C
:1000B00000344034403440347F34403440344034A1
:1000C00000347F34203418340634183420347F341C
:1000D000003400343E34413441344134413422341C
:1000E00000340034003441347F344134003400346F
:1000F00000344034403440347F3440344034403461
:10010000003400340034003400340034003400344F
:1001100000347108F0007208F1007308F2007408EE
:10012000F3007508F4007608F5007708F600003F44
:10013000F7000131FD0A0319FC0A00307C02031D9F
:10014000080068307D02031D0800FC01FD018030BD
:10015000850021308400080016008E00FE308C00DF
:10016000D72016008E00BF308C00D72016008E00DE
:10017000FD308C00D72016008E00F7308C00D72081
:1001800016008E00DF308C00D72016008E00FB306A
:100190008C00D72016008E007F308C00D7201600F0
:1001A0008E00EF308C00D720703086000800F930C8
:0C01B000F80000000000F80BD92808003F
:0401BC0000340034D7
:020000040001F9
:02000E00840963
:02001000FF3CB3
:00000001FF
