:020000040000FA
:1000000008146830990020308C0000308D000810F2
:1000100000308D00FF308C000E200C288030A100B5
:100020004030A2002030A3001030A4000830A5000A
:100030000430A6000230A7001E20080021088D0011
:100040007F308C00442022088D00BF308C0044207B
:1000500023088D00EF308C00442024088D00F730F9
:100060008C00442025088D00FB308C00442026089D
:100070008D00FD308C00442027088D00FE308C0060
:10008000442008000030A800A80B442808000030D5
:10009000A8000030A900A80B4B28A90B492808008C
:0400A00000340034F4
:020000040001F9
:02000E00840963
:02001000FF3CB3
:00000001FF
